{
  "contractName": "VegaToken",
  "abi": [
    {
      "anonymous": false,
      "inputs": [
        {
          "indexed": true,
          "internalType": "address",
          "name": "owner",
          "type": "address"
        },
        {
          "indexed": true,
          "internalType": "address",
          "name": "spender",
          "type": "address"
        },
        {
          "indexed": false,
          "internalType": "uint256",
          "name": "value",
          "type": "uint256"
        }
      ],
      "name": "Approval",
      "type": "event"
    },
    {
      "anonymous": false,
      "inputs": [
        {
          "indexed": true,
          "internalType": "address",
          "name": "previousOwner",
          "type": "address"
        },
        {
          "indexed": true,
          "internalType": "address",
          "name": "newOwner",
          "type": "address"
        }
      ],
      "name": "OwnershipTransferred",
      "type": "event"
    },
    {
      "anonymous": false,
      "inputs": [
        {
          "indexed": false,
          "internalType": "address",
          "name": "account",
          "type": "address"
        }
      ],
      "name": "Paused",
      "type": "event"
    },
    {
      "anonymous": false,
      "inputs": [
        {
          "indexed": true,
          "internalType": "bytes32",
          "name": "role",
          "type": "bytes32"
        },
        {
          "indexed": true,
          "internalType": "bytes32",
          "name": "previousAdminRole",
          "type": "bytes32"
        },
        {
          "indexed": true,
          "internalType": "bytes32",
          "name": "newAdminRole",
          "type": "bytes32"
        }
      ],
      "name": "RoleAdminChanged",
      "type": "event"
    },
    {
      "anonymous": false,
      "inputs": [
        {
          "indexed": true,
          "internalType": "bytes32",
          "name": "role",
          "type": "bytes32"
        },
        {
          "indexed": true,
          "internalType": "address",
          "name": "account",
          "type": "address"
        },
        {
          "indexed": true,
          "internalType": "address",
          "name": "sender",
          "type": "address"
        }
      ],
      "name": "RoleGranted",
      "type": "event"
    },
    {
      "anonymous": false,
      "inputs": [
        {
          "indexed": true,
          "internalType": "bytes32",
          "name": "role",
          "type": "bytes32"
        },
        {
          "indexed": true,
          "internalType": "address",
          "name": "account",
          "type": "address"
        },
        {
          "indexed": true,
          "internalType": "address",
          "name": "sender",
          "type": "address"
        }
      ],
      "name": "RoleRevoked",
      "type": "event"
    },
    {
      "anonymous": false,
      "inputs": [
        {
          "indexed": true,
          "internalType": "address",
          "name": "from",
          "type": "address"
        },
        {
          "indexed": true,
          "internalType": "address",
          "name": "to",
          "type": "address"
        },
        {
          "indexed": false,
          "internalType": "uint256",
          "name": "value",
          "type": "uint256"
        }
      ],
      "name": "Transfer",
      "type": "event"
    },
    {
      "anonymous": false,
      "inputs": [
        {
          "indexed": false,
          "internalType": "address",
          "name": "account",
          "type": "address"
        }
      ],
      "name": "Unpaused",
      "type": "event"
    },
    {
      "inputs": [],
      "name": "BURNER_ROLE",
      "outputs": [
        {
          "internalType": "bytes32",
          "name": "",
          "type": "bytes32"
        }
      ],
      "stateMutability": "view",
      "type": "function",
      "constant": true
    },
    {
      "inputs": [],
      "name": "DEFAULT_ADMIN_ROLE",
      "outputs": [
        {
          "internalType": "bytes32",
          "name": "",
          "type": "bytes32"
        }
      ],
      "stateMutability": "view",
      "type": "function",
      "constant": true
    },
    {
      "inputs": [],
      "name": "MINTER_ROLE",
      "outputs": [
        {
          "internalType": "bytes32",
          "name": "",
          "type": "bytes32"
        }
      ],
      "stateMutability": "view",
      "type": "function",
      "constant": true
    },
    {
      "inputs": [],
      "name": "PAUSER_ROLE",
      "outputs": [
        {
          "internalType": "bytes32",
          "name": "",
          "type": "bytes32"
        }
      ],
      "stateMutability": "view",
      "type": "function",
      "constant": true
    },
    {
      "inputs": [
        {
          "internalType": "address",
          "name": "owner",
          "type": "address"
        },
        {
          "internalType": "address",
          "name": "spender",
          "type": "address"
        }
      ],
      "name": "allowance",
      "outputs": [
        {
          "internalType": "uint256",
          "name": "",
          "type": "uint256"
        }
      ],
      "stateMutability": "view",
      "type": "function",
      "constant": true
    },
    {
      "inputs": [
        {
          "internalType": "address",
          "name": "spender",
          "type": "address"
        },
        {
          "internalType": "uint256",
          "name": "amount",
          "type": "uint256"
        }
      ],
      "name": "approve",
      "outputs": [
        {
          "internalType": "bool",
          "name": "",
          "type": "bool"
        }
      ],
      "stateMutability": "nonpayable",
      "type": "function"
    },
    {
      "inputs": [
        {
          "internalType": "address",
          "name": "account",
          "type": "address"
        }
      ],
      "name": "balanceOf",
      "outputs": [
        {
          "internalType": "uint256",
          "name": "",
          "type": "uint256"
        }
      ],
      "stateMutability": "view",
      "type": "function",
      "constant": true
    },
    {
      "inputs": [
        {
          "internalType": "address",
          "name": "account",
          "type": "address"
        },
        {
          "internalType": "uint256",
          "name": "amount",
          "type": "uint256"
        }
      ],
      "name": "burnFrom",
      "outputs": [],
      "stateMutability": "nonpayable",
      "type": "function"
    },
    {
      "inputs": [],
      "name": "decimals",
      "outputs": [
        {
          "internalType": "uint8",
          "name": "",
          "type": "uint8"
        }
      ],
      "stateMutability": "view",
      "type": "function",
      "constant": true
    },
    {
      "inputs": [
        {
          "internalType": "address",
          "name": "spender",
          "type": "address"
        },
        {
          "internalType": "uint256",
          "name": "subtractedValue",
          "type": "uint256"
        }
      ],
      "name": "decreaseAllowance",
      "outputs": [
        {
          "internalType": "bool",
          "name": "",
          "type": "bool"
        }
      ],
      "stateMutability": "nonpayable",
      "type": "function"
    },
    {
      "inputs": [
        {
          "internalType": "bytes32",
          "name": "role",
          "type": "bytes32"
        }
      ],
      "name": "getRoleAdmin",
      "outputs": [
        {
          "internalType": "bytes32",
          "name": "",
          "type": "bytes32"
        }
      ],
      "stateMutability": "view",
      "type": "function",
      "constant": true
    },
    {
      "inputs": [
        {
          "internalType": "bytes32",
          "name": "role",
          "type": "bytes32"
        },
        {
          "internalType": "uint256",
          "name": "index",
          "type": "uint256"
        }
      ],
      "name": "getRoleMember",
      "outputs": [
        {
          "internalType": "address",
          "name": "",
          "type": "address"
        }
      ],
      "stateMutability": "view",
      "type": "function",
      "constant": true
    },
    {
      "inputs": [
        {
          "internalType": "bytes32",
          "name": "role",
          "type": "bytes32"
        }
      ],
      "name": "getRoleMemberCount",
      "outputs": [
        {
          "internalType": "uint256",
          "name": "",
          "type": "uint256"
        }
      ],
      "stateMutability": "view",
      "type": "function",
      "constant": true
    },
    {
      "inputs": [
        {
          "internalType": "bytes32",
          "name": "role",
          "type": "bytes32"
        },
        {
          "internalType": "address",
          "name": "account",
          "type": "address"
        }
      ],
      "name": "grantRole",
      "outputs": [],
      "stateMutability": "nonpayable",
      "type": "function"
    },
    {
      "inputs": [
        {
          "internalType": "bytes32",
          "name": "role",
          "type": "bytes32"
        },
        {
          "internalType": "address",
          "name": "account",
          "type": "address"
        }
      ],
      "name": "hasRole",
      "outputs": [
        {
          "internalType": "bool",
          "name": "",
          "type": "bool"
        }
      ],
      "stateMutability": "view",
      "type": "function",
      "constant": true
    },
    {
      "inputs": [
        {
          "internalType": "address",
          "name": "spender",
          "type": "address"
        },
        {
          "internalType": "uint256",
          "name": "addedValue",
          "type": "uint256"
        }
      ],
      "name": "increaseAllowance",
      "outputs": [
        {
          "internalType": "bool",
          "name": "",
          "type": "bool"
        }
      ],
      "stateMutability": "nonpayable",
      "type": "function"
    },
    {
      "inputs": [],
      "name": "name",
      "outputs": [
        {
          "internalType": "string",
          "name": "",
          "type": "string"
        }
      ],
      "stateMutability": "view",
      "type": "function",
      "constant": true
    },
    {
      "inputs": [],
      "name": "owner",
      "outputs": [
        {
          "internalType": "address",
          "name": "",
          "type": "address"
        }
      ],
      "stateMutability": "view",
      "type": "function",
      "constant": true
    },
    {
      "inputs": [],
      "name": "paused",
      "outputs": [
        {
          "internalType": "bool",
          "name": "",
          "type": "bool"
        }
      ],
      "stateMutability": "view",
      "type": "function",
      "constant": true
    },
    {
      "inputs": [],
      "name": "renounceOwnership",
      "outputs": [],
      "stateMutability": "nonpayable",
      "type": "function"
    },
    {
      "inputs": [
        {
          "internalType": "bytes32",
          "name": "role",
          "type": "bytes32"
        },
        {
          "internalType": "address",
          "name": "account",
          "type": "address"
        }
      ],
      "name": "renounceRole",
      "outputs": [],
      "stateMutability": "nonpayable",
      "type": "function"
    },
    {
      "inputs": [
        {
          "internalType": "bytes32",
          "name": "role",
          "type": "bytes32"
        },
        {
          "internalType": "address",
          "name": "account",
          "type": "address"
        }
      ],
      "name": "revokeRole",
      "outputs": [],
      "stateMutability": "nonpayable",
      "type": "function"
    },
    {
      "inputs": [],
      "name": "symbol",
      "outputs": [
        {
          "internalType": "string",
          "name": "",
          "type": "string"
        }
      ],
      "stateMutability": "view",
      "type": "function",
      "constant": true
    },
    {
      "inputs": [],
      "name": "totalSupply",
      "outputs": [
        {
          "internalType": "uint256",
          "name": "",
          "type": "uint256"
        }
      ],
      "stateMutability": "view",
      "type": "function",
      "constant": true
    },
    {
      "inputs": [
        {
          "internalType": "address",
          "name": "recipient",
          "type": "address"
        },
        {
          "internalType": "uint256",
          "name": "amount",
          "type": "uint256"
        }
      ],
      "name": "transfer",
      "outputs": [
        {
          "internalType": "bool",
          "name": "",
          "type": "bool"
        }
      ],
      "stateMutability": "nonpayable",
      "type": "function"
    },
    {
      "inputs": [
        {
          "internalType": "address",
          "name": "sender",
          "type": "address"
        },
        {
          "internalType": "address",
          "name": "recipient",
          "type": "address"
        },
        {
          "internalType": "uint256",
          "name": "amount",
          "type": "uint256"
        }
      ],
      "name": "transferFrom",
      "outputs": [
        {
          "internalType": "bool",
          "name": "",
          "type": "bool"
        }
      ],
      "stateMutability": "nonpayable",
      "type": "function"
    },
    {
      "inputs": [
        {
          "internalType": "address",
          "name": "newOwner",
          "type": "address"
        }
      ],
      "name": "transferOwnership",
      "outputs": [],
      "stateMutability": "nonpayable",
      "type": "function"
    },
    {
      "inputs": [
        {
          "internalType": "string",
          "name": "name",
          "type": "string"
        },
        {
          "internalType": "string",
          "name": "symbol",
          "type": "string"
        }
      ],
      "name": "initialize",
      "outputs": [],
      "stateMutability": "nonpayable",
      "type": "function"
    },
    {
      "inputs": [
        {
          "internalType": "address",
          "name": "to",
          "type": "address"
        },
        {
          "internalType": "uint256",
          "name": "amount",
          "type": "uint256"
        }
      ],
      "name": "mint",
      "outputs": [],
      "stateMutability": "nonpayable",
      "type": "function"
    },
    {
      "inputs": [
        {
          "internalType": "uint256",
          "name": "amount",
          "type": "uint256"
        }
      ],
      "name": "burn",
      "outputs": [],
      "stateMutability": "nonpayable",
      "type": "function"
    },
    {
      "inputs": [
        {
          "internalType": "address",
          "name": "from",
          "type": "address"
        },
        {
          "internalType": "uint256",
          "name": "amount",
          "type": "uint256"
        }
      ],
      "name": "burn",
      "outputs": [],
      "stateMutability": "nonpayable",
      "type": "function"
    },
    {
      "inputs": [],
      "name": "pause",
      "outputs": [],
      "stateMutability": "nonpayable",
      "type": "function"
    },
    {
      "inputs": [],
      "name": "unpause",
      "outputs": [],
      "stateMutability": "nonpayable",
      "type": "function"
    }
  ],
  "bytecode": "0x608060405234801561001057600080fd5b50613a27806100206000396000f3fe608060405234801561001057600080fd5b50600436106101fb5760003560e01c8063715018a61161011a578063a217fddf116100ad578063d53913931161007c578063d539139314610aec578063d547741f14610b0a578063dd62ed3e14610b58578063e63ab1e914610bd0578063f2fde38b14610bee576101fb565b8063a217fddf146109c0578063a457c2d7146109de578063a9059cbb14610a44578063ca15c87314610aaa576101fb565b80639010d07c116100e95780639010d07c1461081157806391d148541461088957806395d89b41146108ef5780639dc29fac14610972576101fb565b8063715018a61461076557806379cc67901461076f5780638456cb59146107bd5780638da5cb5b146107c7576101fb565b806336568abe1161019257806342966c681161016157806342966c681461056b5780634cd88b76146105995780635c975abb146106eb57806370a082311461070d576101fb565b806336568abe1461045f57806339509351146104ad5780633f4ba83a1461051357806340c10f191461051d576101fb565b8063248a9ca3116101ce578063248a9ca31461038d578063282c51f3146103cf5780632f2ff15d146103ed578063313ce5671461043b576101fb565b806306fdde0314610200578063095ea7b31461028357806318160ddd146102e957806323b872dd14610307575b600080fd5b610208610c32565b6040518080602001828103825283818151815260200191508051906020019080838360005b8381101561024857808201518184015260208101905061022d565b50505050905090810190601f1680156102755780820380516001836020036101000a031916815260200191505b509250505060405180910390f35b6102cf6004803603604081101561029957600080fd5b81019080803573ffffffffffffffffffffffffffffffffffffffff16906020019092919080359060200190929190505050610cd4565b604051808215151515815260200191505060405180910390f35b6102f1610cf2565b6040518082815260200191505060405180910390f35b6103736004803603606081101561031d57600080fd5b81019080803573ffffffffffffffffffffffffffffffffffffffff169060200190929190803573ffffffffffffffffffffffffffffffffffffffff16906020019092919080359060200190929190505050610cfc565b604051808215151515815260200191505060405180910390f35b6103b9600480360360208110156103a357600080fd5b8101908080359060200190929190505050610dd5565b6040518082815260200191505060405180910390f35b6103d7610df5565b6040518082815260200191505060405180910390f35b6104396004803603604081101561040357600080fd5b8101908080359060200190929190803573ffffffffffffffffffffffffffffffffffffffff169060200190929190505050610e2e565b005b610443610eb8565b604051808260ff1660ff16815260200191505060405180910390f35b6104ab6004803603604081101561047557600080fd5b8101908080359060200190929190803573ffffffffffffffffffffffffffffffffffffffff169060200190929190505050610ecf565b005b6104f9600480360360408110156104c357600080fd5b81019080803573ffffffffffffffffffffffffffffffffffffffff16906020019092919080359060200190929190505050610f68565b604051808215151515815260200191505060405180910390f35b61051b61101b565b005b6105696004803603604081101561053357600080fd5b81019080803573ffffffffffffffffffffffffffffffffffffffff169060200190929190803590602001909291905050506110c0565b005b6105976004803603602081101561058157600080fd5b8101908080359060200190929190505050611169565b005b6106e9600480360360408110156105af57600080fd5b81019080803590602001906401000000008111156105cc57600080fd5b8201836020820111156105de57600080fd5b8035906020019184600183028401116401000000008311171561060057600080fd5b91908080601f016020809104026020016040519081016040528093929190818152602001838380828437600081840152601f19601f8201169050808301925050505050505091929192908035906020019064010000000081111561066357600080fd5b82018360208201111561067557600080fd5b8035906020019184600183028401116401000000008311171561069757600080fd5b91908080601f016020809104026020016040519081016040528093929190818152602001838380828437600081840152601f19601f82011690508083019250505050505050919291929050505061117d565b005b6106f3611288565b604051808215151515815260200191505060405180910390f35b61074f6004803603602081101561072357600080fd5b81019080803573ffffffffffffffffffffffffffffffffffffffff16906020019092919050505061129f565b6040518082815260200191505060405180910390f35b61076d6112e8565b005b6107bb6004803603604081101561078557600080fd5b81019080803573ffffffffffffffffffffffffffffffffffffffff16906020019092919080359060200190929190505050611473565b005b6107c56114d5565b005b6107cf61157a565b604051808273ffffffffffffffffffffffffffffffffffffffff1673ffffffffffffffffffffffffffffffffffffffff16815260200191505060405180910390f35b6108476004803603604081101561082757600080fd5b8101908080359060200190929190803590602001909291905050506115a4565b604051808273ffffffffffffffffffffffffffffffffffffffff1673ffffffffffffffffffffffffffffffffffffffff16815260200191505060405180910390f35b6108d56004803603604081101561089f57600080fd5b8101908080359060200190929190803573ffffffffffffffffffffffffffffffffffffffff1690602001909291905050506115d6565b604051808215151515815260200191505060405180910390f35b6108f7611608565b6040518080602001828103825283818151815260200191508051906020019080838360005b8381101561093757808201518184015260208101905061091c565b50505050905090810190601f1680156109645780820380516001836020036101000a031916815260200191505b509250505060405180910390f35b6109be6004803603604081101561098857600080fd5b81019080803573ffffffffffffffffffffffffffffffffffffffff169060200190929190803590602001909291905050506116aa565b005b6109c8611753565b6040518082815260200191505060405180910390f35b610a2a600480360360408110156109f457600080fd5b81019080803573ffffffffffffffffffffffffffffffffffffffff1690602001909291908035906020019092919050505061175a565b604051808215151515815260200191505060405180910390f35b610a9060048036036040811015610a5a57600080fd5b81019080803573ffffffffffffffffffffffffffffffffffffffff16906020019092919080359060200190929190505050611827565b604051808215151515815260200191505060405180910390f35b610ad660048036036020811015610ac057600080fd5b8101908080359060200190929190505050611845565b6040518082815260200191505060405180910390f35b610af461186c565b6040518082815260200191505060405180910390f35b610b5660048036036040811015610b2057600080fd5b8101908080359060200190929190803573ffffffffffffffffffffffffffffffffffffffff1690602001909291905050506118a5565b005b610bba60048036036040811015610b6e57600080fd5b81019080803573ffffffffffffffffffffffffffffffffffffffff169060200190929190803573ffffffffffffffffffffffffffffffffffffffff16906020019092919050505061192f565b6040518082815260200191505060405180910390f35b610bd86119b6565b6040518082815260200191505060405180910390f35b610c3060048036036020811015610c0457600080fd5b81019080803573ffffffffffffffffffffffffffffffffffffffff1690602001909291905050506119ef565b005b6060609a8054600181600116156101000203166002900480601f016020809104026020016040519081016040528092919081815260200182805460018160011615610100020316600290048015610cca5780601f10610c9f57610100808354040283529160200191610cca565b820191906000526020600020905b815481529060010190602001808311610cad57829003601f168201915b5050505050905090565b6000610ce8610ce1611bff565b8484611c07565b6001905092915050565b6000609954905090565b6000610d09848484611dfe565b610dca84610d15611bff565b610dc58560405180606001604052806028815260200161387060289139609860008b73ffffffffffffffffffffffffffffffffffffffff1673ffffffffffffffffffffffffffffffffffffffff1681526020019081526020016000206000610d7b611bff565b73ffffffffffffffffffffffffffffffffffffffff1673ffffffffffffffffffffffffffffffffffffffff168152602001908152602001600020546120c39092919063ffffffff16565b611c07565b600190509392505050565b600060336000838152602001908152602001600020600201549050919050565b60405180807f4255524e45525f524f4c45000000000000000000000000000000000000000000815250600b019050604051809103902081565b610e556033600084815260200190815260200160002060020154610e50611bff565b6115d6565b610eaa576040517f08c379a000000000000000000000000000000000000000000000000000000000815260040180806020018281038252602f815260200180613701602f913960400191505060405180910390fd5b610eb48282612183565b5050565b6000609c60009054906101000a900460ff16905090565b610ed7611bff565b73ffffffffffffffffffffffffffffffffffffffff168173ffffffffffffffffffffffffffffffffffffffff1614610f5a576040517f08c379a000000000000000000000000000000000000000000000000000000000815260040180806020018281038252602f815260200180613999602f913960400191505060405180910390fd5b610f648282612217565b5050565b6000611011610f75611bff565b8461100c8560986000610f86611bff565b73ffffffffffffffffffffffffffffffffffffffff1673ffffffffffffffffffffffffffffffffffffffff16815260200190815260200160002060008973ffffffffffffffffffffffffffffffffffffffff1673ffffffffffffffffffffffffffffffffffffffff168152602001908152602001600020546122ab90919063ffffffff16565b611c07565b6001905092915050565b61106160405180807f5041555345525f524f4c45000000000000000000000000000000000000000000815250600b019050604051809103902061105c611bff565b6115d6565b6110b6576040517f08c379a000000000000000000000000000000000000000000000000000000000815260040180806020018281038252602a81526020018061379a602a913960400191505060405180910390fd5b6110be612333565b565b61110660405180807f4d494e5445525f524f4c45000000000000000000000000000000000000000000815250600b0190506040518091039020611101611bff565b6115d6565b61115b576040517f08c379a00000000000000000000000000000000000000000000000000000000081526004018080602001828103825260278152602001806139046027913960400191505060405180910390fd5b611165828261243c565b5050565b61117a611174611bff565b82612605565b50565b600060019054906101000a900460ff168061119c575061119b6127cb565b5b806111b357506000809054906101000a900460ff16155b611208576040517f08c379a000000000000000000000000000000000000000000000000000000000815260040180806020018281038252602e81526020018061381a602e913960400191505060405180910390fd5b60008060019054906101000a900460ff161590508015611258576001600060016101000a81548160ff02191690831515021790555060016000806101000a81548160ff0219169083151502179055505b61126283836127e2565b80156112835760008060016101000a81548160ff0219169083151502179055505b505050565b600060fb60009054906101000a900460ff16905090565b6000609760008373ffffffffffffffffffffffffffffffffffffffff1673ffffffffffffffffffffffffffffffffffffffff168152602001908152602001600020549050919050565b6112f0611bff565b73ffffffffffffffffffffffffffffffffffffffff16606560009054906101000a900473ffffffffffffffffffffffffffffffffffffffff1673ffffffffffffffffffffffffffffffffffffffff16146113b2576040517f08c379a00000000000000000000000000000000000000000000000000000000081526004018080602001828103825260208152602001807f4f776e61626c653a2063616c6c6572206973206e6f7420746865206f776e657281525060200191505060405180910390fd5b600073ffffffffffffffffffffffffffffffffffffffff16606560009054906101000a900473ffffffffffffffffffffffffffffffffffffffff1673ffffffffffffffffffffffffffffffffffffffff167f8be0079c531659141344cd1fd0a4f28419497f9722a3daafe3b4186f6b6457e060405160405180910390a36000606560006101000a81548173ffffffffffffffffffffffffffffffffffffffff021916908373ffffffffffffffffffffffffffffffffffffffff160217905550565b60006114b282604051806060016040528060248152602001613898602491396114a38661149e611bff565b61192f565b6120c39092919063ffffffff16565b90506114c6836114c0611bff565b83611c07565b6114d08383612605565b505050565b61151b60405180807f5041555345525f524f4c45000000000000000000000000000000000000000000815250600b0190506040518091039020611516611bff565b6115d6565b611570576040517f08c379a00000000000000000000000000000000000000000000000000000000081526004018080602001828103825260288152602001806138486028913960400191505060405180910390fd5b61157861291d565b565b6000606560009054906101000a900473ffffffffffffffffffffffffffffffffffffffff16905090565b60006115ce8260336000868152602001908152602001600020600001612a2790919063ffffffff16565b905092915050565b60006116008260336000868152602001908152602001600020600001612a4190919063ffffffff16565b905092915050565b6060609b8054600181600116156101000203166002900480601f0160208091040260200160405190810160405280929190818152602001828054600181600116156101000203166002900480156116a05780601f10611675576101008083540402835291602001916116a0565b820191906000526020600020905b81548152906001019060200180831161168357829003601f168201915b5050505050905090565b6116f060405180807f4255524e45525f524f4c45000000000000000000000000000000000000000000815250600b01905060405180910390206116eb611bff565b6115d6565b611745576040517f08c379a00000000000000000000000000000000000000000000000000000000081526004018080602001828103825260278152602001806138bc6027913960400191505060405180910390fd5b61174f8282612605565b5050565b6000801b81565b600061181d611767611bff565b84611818856040518060600160405280602581526020016139746025913960986000611791611bff565b73ffffffffffffffffffffffffffffffffffffffff1673ffffffffffffffffffffffffffffffffffffffff16815260200190815260200160002060008a73ffffffffffffffffffffffffffffffffffffffff1673ffffffffffffffffffffffffffffffffffffffff168152602001908152602001600020546120c39092919063ffffffff16565b611c07565b6001905092915050565b600061183b611834611bff565b8484611dfe565b6001905092915050565b600061186560336000848152602001908152602001600020600001612a71565b9050919050565b60405180807f4d494e5445525f524f4c45000000000000000000000000000000000000000000815250600b019050604051809103902081565b6118cc60336000848152602001908152602001600020600201546118c7611bff565b6115d6565b611921576040517f08c379a00000000000000000000000000000000000000000000000000000000081526004018080602001828103825260308152602001806137ea6030913960400191505060405180910390fd5b61192b8282612217565b5050565b6000609860008473ffffffffffffffffffffffffffffffffffffffff1673ffffffffffffffffffffffffffffffffffffffff16815260200190815260200160002060008373ffffffffffffffffffffffffffffffffffffffff1673ffffffffffffffffffffffffffffffffffffffff16815260200190815260200160002054905092915050565b60405180807f5041555345525f524f4c45000000000000000000000000000000000000000000815250600b019050604051809103902081565b6119f7611bff565b73ffffffffffffffffffffffffffffffffffffffff16606560009054906101000a900473ffffffffffffffffffffffffffffffffffffffff1673ffffffffffffffffffffffffffffffffffffffff1614611ab9576040517f08c379a00000000000000000000000000000000000000000000000000000000081526004018080602001828103825260208152602001807f4f776e61626c653a2063616c6c6572206973206e6f7420746865206f776e657281525060200191505060405180910390fd5b600073ffffffffffffffffffffffffffffffffffffffff168173ffffffffffffffffffffffffffffffffffffffff161415611b3f576040517f08c379a00000000000000000000000000000000000000000000000000000000081526004018080602001828103825260268152602001806137526026913960400191505060405180910390fd5b8073ffffffffffffffffffffffffffffffffffffffff16606560009054906101000a900473ffffffffffffffffffffffffffffffffffffffff1673ffffffffffffffffffffffffffffffffffffffff167f8be0079c531659141344cd1fd0a4f28419497f9722a3daafe3b4186f6b6457e060405160405180910390a380606560006101000a81548173ffffffffffffffffffffffffffffffffffffffff021916908373ffffffffffffffffffffffffffffffffffffffff16021790555050565b600033905090565b600073ffffffffffffffffffffffffffffffffffffffff168373ffffffffffffffffffffffffffffffffffffffff161415611c8d576040517f08c379a00000000000000000000000000000000000000000000000000000000081526004018080602001828103825260248152602001806139506024913960400191505060405180910390fd5b600073ffffffffffffffffffffffffffffffffffffffff168273ffffffffffffffffffffffffffffffffffffffff161415611d13576040517f08c379a00000000000000000000000000000000000000000000000000000000081526004018080602001828103825260228152602001806137786022913960400191505060405180910390fd5b80609860008573ffffffffffffffffffffffffffffffffffffffff1673ffffffffffffffffffffffffffffffffffffffff16815260200190815260200160002060008473ffffffffffffffffffffffffffffffffffffffff1673ffffffffffffffffffffffffffffffffffffffff168152602001908152602001600020819055508173ffffffffffffffffffffffffffffffffffffffff168373ffffffffffffffffffffffffffffffffffffffff167f8c5be1e5ebec7d5bd14f71427d1e84f3dd0314c0f7b2291e5b200ac8c7c3b925836040518082815260200191505060405180910390a3505050565b600073ffffffffffffffffffffffffffffffffffffffff168373ffffffffffffffffffffffffffffffffffffffff161415611e84576040517f08c379a000000000000000000000000000000000000000000000000000000000815260040180806020018281038252602581526020018061392b6025913960400191505060405180910390fd5b600073ffffffffffffffffffffffffffffffffffffffff168273ffffffffffffffffffffffffffffffffffffffff161415611f0a576040517f08c379a00000000000000000000000000000000000000000000000000000000081526004018080602001828103825260238152602001806136de6023913960400191505060405180910390fd5b611f15838383612a86565b611f81816040518060600160405280602681526020016137c460269139609760008773ffffffffffffffffffffffffffffffffffffffff1673ffffffffffffffffffffffffffffffffffffffff168152602001908152602001600020546120c39092919063ffffffff16565b609760008573ffffffffffffffffffffffffffffffffffffffff1673ffffffffffffffffffffffffffffffffffffffff1681526020019081526020016000208190555061201681609760008573ffffffffffffffffffffffffffffffffffffffff1673ffffffffffffffffffffffffffffffffffffffff168152602001908152602001600020546122ab90919063ffffffff16565b609760008473ffffffffffffffffffffffffffffffffffffffff1673ffffffffffffffffffffffffffffffffffffffff168152602001908152602001600020819055508173ffffffffffffffffffffffffffffffffffffffff168373ffffffffffffffffffffffffffffffffffffffff167fddf252ad1be2c89b69c2b068fc378daa952ba7f163c4a11628f55a4df523b3ef836040518082815260200191505060405180910390a3505050565b6000838311158290612170576040517f08c379a00000000000000000000000000000000000000000000000000000000081526004018080602001828103825283818151815260200191508051906020019080838360005b8381101561213557808201518184015260208101905061211a565b50505050905090810190601f1680156121625780820380516001836020036101000a031916815260200191505b509250505060405180910390fd5b5060008385039050809150509392505050565b6121ab8160336000858152602001908152602001600020600001612a9690919063ffffffff16565b15612213576121b8611bff565b73ffffffffffffffffffffffffffffffffffffffff168173ffffffffffffffffffffffffffffffffffffffff16837f2f8788117e7eff1d82e926ec794901d17c78024a50270940304540a733656f0d60405160405180910390a45b5050565b61223f8160336000858152602001908152602001600020600001612ac690919063ffffffff16565b156122a75761224c611bff565b73ffffffffffffffffffffffffffffffffffffffff168173ffffffffffffffffffffffffffffffffffffffff16837ff6391f5c32d9c69d2a47ea670b442974b53935d1edc7fd64eb21e047a839171b60405160405180910390a45b5050565b600080828401905083811015612329576040517f08c379a000000000000000000000000000000000000000000000000000000000815260040180806020018281038252601b8152602001807f536166654d6174683a206164646974696f6e206f766572666c6f77000000000081525060200191505060405180910390fd5b8091505092915050565b60fb60009054906101000a900460ff166123b5576040517f08c379a00000000000000000000000000000000000000000000000000000000081526004018080602001828103825260148152602001807f5061757361626c653a206e6f742070617573656400000000000000000000000081525060200191505060405180910390fd5b600060fb60006101000a81548160ff0219169083151502179055507f5db9ee0a495bf2e6ff9c91a7834c1ba4fdd244a5e8aa4e537bd38aeae4b073aa6123f9611bff565b604051808273ffffffffffffffffffffffffffffffffffffffff1673ffffffffffffffffffffffffffffffffffffffff16815260200191505060405180910390a1565b600073ffffffffffffffffffffffffffffffffffffffff168273ffffffffffffffffffffffffffffffffffffffff1614156124df576040517f08c379a000000000000000000000000000000000000000000000000000000000815260040180806020018281038252601f8152602001807f45524332303a206d696e7420746f20746865207a65726f20616464726573730081525060200191505060405180910390fd5b6124eb60008383612a86565b612500816099546122ab90919063ffffffff16565b60998190555061255881609760008573ffffffffffffffffffffffffffffffffffffffff1673ffffffffffffffffffffffffffffffffffffffff168152602001908152602001600020546122ab90919063ffffffff16565b609760008473ffffffffffffffffffffffffffffffffffffffff1673ffffffffffffffffffffffffffffffffffffffff168152602001908152602001600020819055508173ffffffffffffffffffffffffffffffffffffffff16600073ffffffffffffffffffffffffffffffffffffffff167fddf252ad1be2c89b69c2b068fc378daa952ba7f163c4a11628f55a4df523b3ef836040518082815260200191505060405180910390a35050565b600073ffffffffffffffffffffffffffffffffffffffff168273ffffffffffffffffffffffffffffffffffffffff16141561268b576040517f08c379a00000000000000000000000000000000000000000000000000000000081526004018080602001828103825260218152602001806138e36021913960400191505060405180910390fd5b61269782600083612a86565b6127038160405180606001604052806022815260200161373060229139609760008673ffffffffffffffffffffffffffffffffffffffff1673ffffffffffffffffffffffffffffffffffffffff168152602001908152602001600020546120c39092919063ffffffff16565b609760008473ffffffffffffffffffffffffffffffffffffffff1673ffffffffffffffffffffffffffffffffffffffff1681526020019081526020016000208190555061275b81609954612af690919063ffffffff16565b609981905550600073ffffffffffffffffffffffffffffffffffffffff168273ffffffffffffffffffffffffffffffffffffffff167fddf252ad1be2c89b69c2b068fc378daa952ba7f163c4a11628f55a4df523b3ef836040518082815260200191505060405180910390a35050565b6000803090506000813b9050600081149250505090565b600060019054906101000a900460ff168061280157506128006127cb565b5b8061281857506000809054906101000a900460ff16155b61286d576040517f08c379a000000000000000000000000000000000000000000000000000000000815260040180806020018281038252602e81526020018061381a602e913960400191505060405180910390fd5b60008060019054906101000a900460ff1615905080156128bd576001600060016101000a81548160ff02191690831515021790555060016000806101000a81548160ff0219169083151502179055505b6128c5612b40565b6128cd612c3f565b6128d78383612d3e565b6128df612e89565b6128e7612f88565b6128ef6130a2565b6128f76131a1565b80156129185760008060016101000a81548160ff0219169083151502179055505b505050565b60fb60009054906101000a900460ff16156129a0576040517f08c379a00000000000000000000000000000000000000000000000000000000081526004018080602001828103825260108152602001807f5061757361626c653a207061757365640000000000000000000000000000000081525060200191505060405180910390fd5b600160fb60006101000a81548160ff0219169083151502179055507f62e78cea01bee320cd4e420270b5ea74000d11b0c9f74754ebdbfc544b05a2586129e4611bff565b604051808273ffffffffffffffffffffffffffffffffffffffff1673ffffffffffffffffffffffffffffffffffffffff16815260200191505060405180910390a1565b6000612a368360000183613386565b60001c905092915050565b6000612a69836000018373ffffffffffffffffffffffffffffffffffffffff1660001b613409565b905092915050565b6000612a7f8260000161342c565b9050919050565b612a9183838361343d565b505050565b6000612abe836000018373ffffffffffffffffffffffffffffffffffffffff1660001b6134ab565b905092915050565b6000612aee836000018373ffffffffffffffffffffffffffffffffffffffff1660001b61351b565b905092915050565b6000612b3883836040518060400160405280601e81526020017f536166654d6174683a207375627472616374696f6e206f766572666c6f7700008152506120c3565b905092915050565b600060019054906101000a900460ff1680612b5f5750612b5e6127cb565b5b80612b7657506000809054906101000a900460ff16155b612bcb576040517f08c379a000000000000000000000000000000000000000000000000000000000815260040180806020018281038252602e81526020018061381a602e913960400191505060405180910390fd5b60008060019054906101000a900460ff161590508015612c1b576001600060016101000a81548160ff02191690831515021790555060016000806101000a81548160ff0219169083151502179055505b8015612c3c5760008060016101000a81548160ff0219169083151502179055505b50565b600060019054906101000a900460ff1680612c5e5750612c5d6127cb565b5b80612c7557506000809054906101000a900460ff16155b612cca576040517f08c379a000000000000000000000000000000000000000000000000000000000815260040180806020018281038252602e81526020018061381a602e913960400191505060405180910390fd5b60008060019054906101000a900460ff161590508015612d1a576001600060016101000a81548160ff02191690831515021790555060016000806101000a81548160ff0219169083151502179055505b8015612d3b5760008060016101000a81548160ff0219169083151502179055505b50565b600060019054906101000a900460ff1680612d5d5750612d5c6127cb565b5b80612d7457506000809054906101000a900460ff16155b612dc9576040517f08c379a000000000000000000000000000000000000000000000000000000000815260040180806020018281038252602e81526020018061381a602e913960400191505060405180910390fd5b60008060019054906101000a900460ff161590508015612e19576001600060016101000a81548160ff02191690831515021790555060016000806101000a81548160ff0219169083151502179055505b82609a9080519060200190612e2f929190613616565b5081609b9080519060200190612e46929190613616565b506012609c60006101000a81548160ff021916908360ff1602179055508015612e845760008060016101000a81548160ff0219169083151502179055505b505050565b600060019054906101000a900460ff1680612ea85750612ea76127cb565b5b80612ebf57506000809054906101000a900460ff16155b612f14576040517f08c379a000000000000000000000000000000000000000000000000000000000815260040180806020018281038252602e81526020018061381a602e913960400191505060405180910390fd5b60008060019054906101000a900460ff161590508015612f64576001600060016101000a81548160ff02191690831515021790555060016000806101000a81548160ff0219169083151502179055505b8015612f855760008060016101000a81548160ff0219169083151502179055505b50565b600060019054906101000a900460ff1680612fa75750612fa66127cb565b5b80612fbe57506000809054906101000a900460ff16155b613013576040517f08c379a000000000000000000000000000000000000000000000000000000000815260040180806020018281038252602e81526020018061381a602e913960400191505060405180910390fd5b60008060019054906101000a900460ff161590508015613063576001600060016101000a81548160ff02191690831515021790555060016000806101000a81548160ff0219169083151502179055505b600060fb60006101000a81548160ff021916908315150217905550801561309f5760008060016101000a81548160ff0219169083151502179055505b50565b600060019054906101000a900460ff16806130c157506130c06127cb565b5b806130d857506000809054906101000a900460ff16155b61312d576040517f08c379a000000000000000000000000000000000000000000000000000000000815260040180806020018281038252602e81526020018061381a602e913960400191505060405180910390fd5b60008060019054906101000a900460ff16159050801561317d576001600060016101000a81548160ff02191690831515021790555060016000806101000a81548160ff0219169083151502179055505b801561319e5760008060016101000a81548160ff0219169083151502179055505b50565b600060019054906101000a900460ff16806131c057506131bf6127cb565b5b806131d757506000809054906101000a900460ff16155b61322c576040517f08c379a000000000000000000000000000000000000000000000000000000000815260040180806020018281038252602e81526020018061381a602e913960400191505060405180910390fd5b60008060019054906101000a900460ff16159050801561327c576001600060016101000a81548160ff02191690831515021790555060016000806101000a81548160ff0219169083151502179055505b6132906000801b61328b611bff565b613603565b6132d660405180807f4d494e5445525f524f4c45000000000000000000000000000000000000000000815250600b01905060405180910390206132d1611bff565b613603565b61331c60405180807f5041555345525f524f4c45000000000000000000000000000000000000000000815250600b0190506040518091039020613317611bff565b613603565b61336260405180807f4255524e45525f524f4c45000000000000000000000000000000000000000000815250600b019050604051809103902061335d611bff565b613603565b80156133835760008060016101000a81548160ff0219169083151502179055505b50565b6000818360000180549050116133e7576040517f08c379a00000000000000000000000000000000000000000000000000000000081526004018080602001828103825260228152602001806136bc6022913960400191505060405180910390fd5b8260000182815481106133f657fe5b9060005260206000200154905092915050565b600080836001016000848152602001908152602001600020541415905092915050565b600081600001805490509050919050565b613448838383613611565b613450611288565b156134a6576040517f08c379a000000000000000000000000000000000000000000000000000000000815260040180806020018281038252602a8152602001806139c8602a913960400191505060405180910390fd5b505050565b60006134b78383613409565b613510578260000182908060018154018082558091505060019003906000526020600020016000909190919091505582600001805490508360010160008481526020019081526020016000208190555060019050613515565b600090505b92915050565b600080836001016000848152602001908152602001600020549050600081146135f7576000600182039050600060018660000180549050039050600086600001828154811061356657fe5b906000526020600020015490508087600001848154811061358357fe5b90600052602060002001819055506001830187600101600083815260200190815260200160002081905550866000018054806135bb57fe5b600190038181906000526020600020016000905590558660010160008781526020019081526020016000206000905560019450505050506135fd565b60009150505b92915050565b61360d8282612183565b5050565b505050565b828054600181600116156101000203166002900490600052602060002090601f016020900481019282601f1061365757805160ff1916838001178555613685565b82800160010185558215613685579182015b82811115613684578251825591602001919060010190613669565b5b5090506136929190613696565b5090565b6136b891905b808211156136b457600081600090555060010161369c565b5090565b9056fe456e756d657261626c655365743a20696e646578206f7574206f6620626f756e647345524332303a207472616e7366657220746f20746865207a65726f2061646472657373416363657373436f6e74726f6c3a2073656e646572206d75737420626520616e2061646d696e20746f206772616e7445524332303a206275726e20616d6f756e7420657863656564732062616c616e63654f776e61626c653a206e6577206f776e657220697320746865207a65726f206164647265737345524332303a20617070726f766520746f20746865207a65726f20616464726573735665676120436f696e206d75737420686176652070617573657220726f6c6520746f20756e706175736545524332303a207472616e7366657220616d6f756e7420657863656564732062616c616e6365416363657373436f6e74726f6c3a2073656e646572206d75737420626520616e2061646d696e20746f207265766f6b65496e697469616c697a61626c653a20636f6e747261637420697320616c726561647920696e697469616c697a65645665676120436f696e206d75737420686176652070617573657220726f6c6520746f20706175736545524332303a207472616e7366657220616d6f756e74206578636565647320616c6c6f77616e636545524332303a206275726e20616d6f756e74206578636565647320616c6c6f77616e63655665676120436f696e206d7573742068617665206275726e657220726f6c6520746f206275726e45524332303a206275726e2066726f6d20746865207a65726f20616464726573735665676120436f696e206d7573742068617665206d696e74657220726f6c6520746f206d696e7445524332303a207472616e736665722066726f6d20746865207a65726f206164647265737345524332303a20617070726f76652066726f6d20746865207a65726f206164647265737345524332303a2064656372656173656420616c6c6f77616e63652062656c6f77207a65726f416363657373436f6e74726f6c3a2063616e206f6e6c792072656e6f756e636520726f6c657320666f722073656c6645524332305061757361626c653a20746f6b656e207472616e73666572207768696c6520706175736564a2646970667358221220d335353d8300cbb407306a23edc84a5e33ec5bc7f15e7a0954766f21f8d490fb64736f6c63430006020033",
  "source": "// SPDX-License-Identifier: MIT\n\npragma solidity ^0.6.2;\n\nimport \"@openzeppelin/contracts-upgradeable/access/AccessControlUpgradeable.sol\";\nimport \"@openzeppelin/contracts-upgradeable/access/OwnableUpgradeable.sol\";\nimport \"@openzeppelin/contracts-upgradeable/GSN/ContextUpgradeable.sol\";\nimport \"@openzeppelin/contracts-upgradeable/token/ERC20/ERC20Upgradeable.sol\";\nimport \"@openzeppelin/contracts-upgradeable/token/ERC20/ERC20BurnableUpgradeable.sol\";\nimport \"@openzeppelin/contracts-upgradeable/token/ERC20/ERC20PausableUpgradeable.sol\";\nimport \"@openzeppelin/contracts-upgradeable/proxy/Initializable.sol\";\n\ncontract VegaToken is Initializable, ContextUpgradeable, AccessControlUpgradeable, OwnableUpgradeable, ERC20BurnableUpgradeable, ERC20PausableUpgradeable {\n    function initialize(string memory name, string memory symbol) public virtual initializer {\n        __VegaToken_init(name, symbol);\n    }\n\n    bytes32 public constant MINTER_ROLE = keccak256(\"MINTER_ROLE\");\n    bytes32 public constant PAUSER_ROLE = keccak256(\"PAUSER_ROLE\");\n    bytes32 public constant BURNER_ROLE = keccak256(\"BURNER_ROLE\");\n\n    function __VegaToken_init(string memory name, string memory symbol) internal initializer {\n        __Context_init_unchained();\n        __AccessControl_init_unchained();\n        __ERC20_init_unchained(name, symbol);\n        __ERC20Burnable_init_unchained();\n        __Pausable_init_unchained();\n        __ERC20Pausable_init_unchained();\n        __VegaToken_init_unchained();\n    }\n\n    function __VegaToken_init_unchained() internal initializer {\n        _setupRole(DEFAULT_ADMIN_ROLE, _msgSender());\n        _setupRole(MINTER_ROLE, _msgSender());\n        _setupRole(PAUSER_ROLE, _msgSender());\n        _setupRole(BURNER_ROLE, _msgSender());\n    }\n\n    function mint(address to, uint256 amount) public virtual {\n        require(hasRole(MINTER_ROLE, _msgSender()), \"Vega Coin must have minter role to mint\");\n        _mint(to, amount);\n    }\n\n    function burn(address from, uint256 amount) public {\n        require(hasRole(BURNER_ROLE, _msgSender()), \"Vega Coin must have burner role to burn\");\n        _burn(from, amount);\n    }\n\n    function pause() public virtual {\n        require(hasRole(PAUSER_ROLE, _msgSender()), \"Vega Coin must have pauser role to pause\");\n        _pause();\n    }\n\n    function unpause() public virtual {\n        require(hasRole(PAUSER_ROLE, _msgSender()), \"Vega Coin must have pauser role to unpause\");\n        _unpause();\n    }\n\n    function _beforeTokenTransfer(address from, address to, uint256 amount) internal virtual override(ERC20Upgradeable, ERC20PausableUpgradeable) {\n        super._beforeTokenTransfer(from, to, amount);\n    }\n\n    uint256[50] private __gap;\n}\n",
  "sourcePath": "/root/vega/contracts/VegaToken.sol",
  "compiler": {
    "name": "solc",
    "version": "0.6.2+commit.bacdbe57.Emscripten.clang"
  },
  "schemaVersion": "3.3.2",
  "updatedAt": "2020-11-30T09:54:50.844Z",
  "networkType": "ethereum",
  "devdoc": {
    "methods": {
      "allowance(address,address)": {
        "details": "See {IERC20-allowance}."
      },
      "approve(address,uint256)": {
        "details": "See {IERC20-approve}.     * Requirements:     * - `spender` cannot be the zero address."
      },
      "balanceOf(address)": {
        "details": "See {IERC20-balanceOf}."
      },
      "burn(uint256)": {
        "details": "Destroys `amount` tokens from the caller.     * See {ERC20-_burn}."
      },
      "burnFrom(address,uint256)": {
        "details": "Destroys `amount` tokens from `account`, deducting from the caller's allowance.     * See {ERC20-_burn} and {ERC20-allowance}.     * Requirements:     * - the caller must have allowance for ``accounts``'s tokens of at least `amount`."
      },
      "decimals()": {
        "details": "Returns the number of decimals used to get its user representation. For example, if `decimals` equals `2`, a balance of `505` tokens should be displayed to a user as `5,05` (`505 / 10 ** 2`).     * Tokens usually opt for a value of 18, imitating the relationship between Ether and Wei. This is the value {ERC20} uses, unless {_setupDecimals} is called.     * NOTE: This information is only used for _display_ purposes: it in no way affects any of the arithmetic of the contract, including {IERC20-balanceOf} and {IERC20-transfer}."
      },
      "decreaseAllowance(address,uint256)": {
        "details": "Atomically decreases the allowance granted to `spender` by the caller.     * This is an alternative to {approve} that can be used as a mitigation for problems described in {IERC20-approve}.     * Emits an {Approval} event indicating the updated allowance.     * Requirements:     * - `spender` cannot be the zero address. - `spender` must have allowance for the caller of at least `subtractedValue`."
      },
      "getRoleAdmin(bytes32)": {
        "details": "Returns the admin role that controls `role`. See {grantRole} and {revokeRole}.     * To change a role's admin, use {_setRoleAdmin}."
      },
      "getRoleMember(bytes32,uint256)": {
        "details": "Returns one of the accounts that have `role`. `index` must be a value between 0 and {getRoleMemberCount}, non-inclusive.     * Role bearers are not sorted in any particular way, and their ordering may change at any point.     * WARNING: When using {getRoleMember} and {getRoleMemberCount}, make sure you perform all queries on the same block. See the following https://forum.openzeppelin.com/t/iterating-over-elements-on-enumerableset-in-openzeppelin-contracts/2296[forum post] for more information."
      },
      "getRoleMemberCount(bytes32)": {
        "details": "Returns the number of accounts that have `role`. Can be used together with {getRoleMember} to enumerate all bearers of a role."
      },
      "grantRole(bytes32,address)": {
        "details": "Grants `role` to `account`.     * If `account` had not been already granted `role`, emits a {RoleGranted} event.     * Requirements:     * - the caller must have ``role``'s admin role."
      },
      "hasRole(bytes32,address)": {
        "details": "Returns `true` if `account` has been granted `role`."
      },
      "increaseAllowance(address,uint256)": {
        "details": "Atomically increases the allowance granted to `spender` by the caller.     * This is an alternative to {approve} that can be used as a mitigation for problems described in {IERC20-approve}.     * Emits an {Approval} event indicating the updated allowance.     * Requirements:     * - `spender` cannot be the zero address."
      },
      "name()": {
        "details": "Returns the name of the token."
      },
      "owner()": {
        "details": "Returns the address of the current owner."
      },
      "paused()": {
        "details": "Returns true if the contract is paused, and false otherwise."
      },
      "renounceOwnership()": {
        "details": "Leaves the contract without owner. It will not be possible to call `onlyOwner` functions anymore. Can only be called by the current owner.     * NOTE: Renouncing ownership will leave the contract without an owner, thereby removing any functionality that is only available to the owner."
      },
      "renounceRole(bytes32,address)": {
        "details": "Revokes `role` from the calling account.     * Roles are often managed via {grantRole} and {revokeRole}: this function's purpose is to provide a mechanism for accounts to lose their privileges if they are compromised (such as when a trusted device is misplaced).     * If the calling account had been granted `role`, emits a {RoleRevoked} event.     * Requirements:     * - the caller must be `account`."
      },
      "revokeRole(bytes32,address)": {
        "details": "Revokes `role` from `account`.     * If `account` had been granted `role`, emits a {RoleRevoked} event.     * Requirements:     * - the caller must have ``role``'s admin role."
      },
      "symbol()": {
        "details": "Returns the symbol of the token, usually a shorter version of the name."
      },
      "totalSupply()": {
        "details": "See {IERC20-totalSupply}."
      },
      "transfer(address,uint256)": {
        "details": "See {IERC20-transfer}.     * Requirements:     * - `recipient` cannot be the zero address. - the caller must have a balance of at least `amount`."
      },
      "transferFrom(address,address,uint256)": {
        "details": "See {IERC20-transferFrom}.     * Emits an {Approval} event indicating the updated allowance. This is not required by the EIP. See the note at the beginning of {ERC20}.     * Requirements:     * - `sender` and `recipient` cannot be the zero address. - `sender` must have a balance of at least `amount`. - the caller must have allowance for ``sender``'s tokens of at least `amount`."
      },
      "transferOwnership(address)": {
        "details": "Transfers ownership of the contract to a new account (`newOwner`). Can only be called by the current owner."
      }
    }
  },
  "userdoc": {
    "methods": {}
  }
}